:100000000C94ED000C9415010C9415010C94150141
:100010000C9415010C9415010C9415010C94150108
:100020000C9415010C9415010C94E8060C9492079D
:100030000C94A1060C9415010C9415010C94150157
:100040000C9438050C9415010C9406050C94E004EE
:100050000C9415010C9415010C9415010C941501C8
:100060000C9482050C941501084AD73B3BCE016ED7
:1000700084BCBFFDC12F3D6C74319ABD56833DDAFF
:100080003D00C77F11BED9E4BB4C3E916BAAAABE0E
:10009000000000803F00324400000000000000002B
:1000A0000000000000574159504F494E54000000D5
:1000B0000000000032445F414800000000000000E2
:1000C00000000032445F48480000000000000000CB
:1000D00000004C4F49544552000000000000000051
:1000E0000033440000000000000000000000000099
:1000F00033445F4848000000000000000000005248
:1001000054480000000000000000000000004C41C6
:100110004E44000000000000000000000043415277
:1001200054455349414E00000000000043415254E1
:100130005F4C4F4954455200000000504F4C415213
:1001400000000000000000000000504F4C41525FD2
:100150004C4F4954455200000043454E5445525FB0
:10016000535449434B0000004D414E55414C000053
:10017000000000000000004D415800000000000099
:1001800000000000000000000000240027002A00FA
:1001900000000000250028002B00040404040404CF
:1001A0000404020202020202030303030303010226
:1001B00004081020408001020408102001020408F5
:1001C00010200000000800020100000304070000E6
:1001D00000000000000028086A1311241FBECFEFA2
:1001E000D8E0DEBFCDBF11E0A0E0B1E0E6E1FEE285
:1001F00002C005900D92A03EB107D9F727E0A0EE0E
:10020000B1E001C01D92A232B207E1F710E0CCEEDE
:10021000D0E004C02197FE010E94F816CB3ED10722
:10022000C9F70E9485080C94FE160C94000090E01B
:10023000FC01EE53FE4F2491FC01E255FE4F349138
:10024000FC01E656FE4FE491EE23B1F0222339F093
:100250002330E9F090F4213001F1223011F1F0E087
:10026000EE0FFF1FE057FE4FA591B4918FB7F894A2
:10027000EC913E2B3C938FBF08952730A9F0283096
:10028000C9F0243061F7809180008F7D03C0809198
:1002900080008F7780938000E2CF84B58F7784BD14
:1002A000DECF84B58F7DFBCF8091B0008F778093B8
:1002B000B000D5CF8091B0008F7DF9CFDF92EF9263
:1002C000FF920F931F93CF93DF93C82FD62FD72E74
:1002D000F42E80915D0690915E06DC01ED91FC911B
:1002E0000190F081E02D64E2099580915D06909186
:1002F0005E06DC01ED91FC910190F081E02D6DE452
:10030000099580915D0690915E06DC01ED91FC916E
:100310000190F081E02D6EE3099580915D0690914A
:100320005E06DC01ED91FC910190F081E02D6F2DD6
:10033000099580915D0690915E06DC01ED91FC913E
:100340000190F081E02D6C2F0995CF25ED2E0D2F1A
:100350001D2DF80161918F01C62780915D06909156
:100360005E06DC01ED91FC910190F081E02D099594
:10037000802F8E198F1568F380915D0690915E062F
:10038000DC01ED91FC910190F081E02D6C2FDF916B
:10039000CF911F910F91FF90EF90DF9009940895F6
:1003A0000895AF92BF92CF92DF92EF92FF920F9398
:1003B0001F93CF93DF936C017B018B01040F151FFB
:1003C000EB015E01AE18BF08C017D10759F0699163
:1003D000D601ED91FC910190F081E02DC6010995C7
:1003E000892B79F7C501DF91CF911F910F91FF9074
:1003F000EF90DF90CF90BF90AF900895FC01538DA8
:10040000448D252F30E0842F90E0821B930B5417EE
:1004100010F0CF96089501970895FC01918D828D7B
:10042000981761F0A28DAE0FBF2FB11D5D968C9114
:10043000928D9F5F9F73928F90E008958FEF9FEF53
:100440000895FC01918D828D981731F0828DE80F0F
:10045000F11D858D90E008958FEF9FEF0895FC01C9
:10046000918D228D892F90E0805C9F4F821B910996
:100470008F739927089583E696E00E942F0221E06A
:10048000892B09F420E0822F089580E090E0892BE9
:1004900029F00E943B0281110C9400000895FC0198
:1004A000A48DA80FB92FB11DA35ABF4F2C91848DD5
:1004B00090E001968F739927848FA689B7892C9332
:1004C000A089B1898C91837080648C93938D848D85
:1004D000981306C00288F389E02D80818F7D808388
:1004E0000895EF92FF920F931F93CF93DF93EC0148
:1004F00081E0888F9B8D8C8D98131AC0E889F989CB
:10050000808185FF15C09FB7F894EE89FF896083CD
:10051000E889F98980818370806480839FBF81E04E
:1005200090E0DF91CF911F910F91FF90EF90089590
:10053000F62E0B8D10E00F5F1F4F0F731127E02E6B
:100540008C8D8E110CC00FB607FCFACFE889F989A3
:10055000808185FFF5CFCE010E944F02F1CFEB8D58
:10056000EC0FFD2FF11DE35AFF4FF0829FB7F89477
:100570000B8FEA89FB8980818062CFCFCF93DF9395
:10058000EC01888D8823B9F0AA89BB89E889F989AB
:100590008C9185FD03C0808186FD0DC00FB607FCE0
:1005A000F7CF8C9185FFF2CF808185FFEDCFCE0113
:1005B0000E944F02E9CFDF91CF910895CF93DF934F
:1005C00090E0FC01E255FE4F249186569E4FFC01BF
:1005D00084918823D1F090E0880F991FFC01EA579D
:1005E000FE4FA591B491FC01E057FE4FC591D49107
:1005F000623071F49FB7F8943C91822F80958323E9
:100600008C93E8812E2B28839FBFDF91CF91089593
:100610008FB7F894EC912E2B2C938FBFF6CF85EDEE
:100620008093BC008091BC0084FDFCCF1092180325
:1006300008952091BA02260F3327331F2132310546
:10064000ECF420911803FC0190E080E0243069F084
:1006500082E00895A091BA022191AC0146565D4F07
:10066000A40FB52FB11D2C930196861798F3809196
:10067000BA02680F6093BA0280E0089581E008959D
:100680000895E091E7028091E602E81730F4F0E087
:10069000E658FD4F808190E008958FEF9FEF089519
:1006A0009091E7028091E6022FEF3FEF981748F410
:1006B000E92FF0E0E658FD4F208130E09F5F9093F6
:1006C000E702C90108958091E6029091E702891B33
:1006D000990B0895CF92DF92EF92FF920F931F93A1
:1006E000CF93DF937C01CB018A0120911903222350
:1006F00089F0EB016B01C40ED51ECC15DD0569F048
:100700006991D701ED91FC910190F081E02DC70135
:100710000995F3CF642F0E941903C801DF91CF918F
:100720001F910F91FF90EF90DF90CF900895CF939E
:10073000DF931F92CDB7DEB769832091190322237F
:10074000F9F020913C03203258F021E030E0FC0128
:100750003383228390E080E00F90DF91CF91089562
:1007600080911A03E82FF0E0E55EFC4F99819083B9
:100770008F5F80931A0380933C0381E090E0ECCF7D
:1007800061E0CE0101960E941903F7CF90E080E06E
:1007900008955091E9024091E802842F90E0252FBE
:1007A00030E0541718F4821B930B08958C5B9F4F15
:1007B000FACF5091EC024091EB02852F90E0242F6C
:1007C00030E0541718F0821B930B0895805B9F4F05
:1007D000FACF8091EC02E091EB028E1751F0EF5FBF
:1007E000E03508F0E0E0F0E0E65DFD4F808190E06C
:1007F00008958FEF9FEF08958091EC029091EB02A6
:10080000891769F09F5F903508F090E0E92FF0E0DC
:10081000E65DFD4F80819093EB0290E008958FEFAD
:100820009FEF08958091EA028111FCCF0895809195
:10083000E9028F5F843408F080E09091E802981715
:10084000E1F32FB7F8949091EA02992359F0E82F39
:10085000F0E0E052FE4F60838093E9022FBF81E019
:1008600090E0089581E08093EA026093250210925F
:10087000240282E086BB80916F00826080936F00CB
:10088000809180008F7B80688093800080918400BD
:100890009091850040969093890080938800DECFE8
:1008A000E0913D0391E09E0F90933D03F0E0E45210
:1008B000FA4F80839093DD050895CF93C82F892F39
:1008C0000E9450048C2FCF910C9450049091DB0522
:1008D00028E035ED492F990F87FD9F5F880F47FD71
:1008E00093272150B9F79093DB0508950F931F9339
:1008F000CF9380915C06811130C01092DB0510927D
:10090000DA058091DC0580935A058091DD0580939E
:100910005B058E5F80935C06C2E020915C06C21787
:1009200008F58C2F90E02150330B8C01065A1A4F9A
:100930008217930749F480E00E9466048091DB05EA
:10094000F8018083CF5FE9CF84529A4FFC01808108
:10095000F80180830E946604F5CF80E0CF911F915B
:100960000F91089581E0FACFCF93DF93CDB7DEB733
:100970002F970FB6F894DEBF0FBECDBF80911C0736
:1009800090911D072FE0289FB001299F700D112421
:100990006A567F4FCE0101960E9488138FE0FE01B8
:1009A0003196A6E0B1E001900D928A95E1F72F967D
:1009B0000FB6F894DEBF0FBECDBFDF91CF91089583
:1009C0001F920F920FB60F9211242F933F934F93C4
:1009D0005F936F937F938F939F93AF93BF93EF93A7
:1009E000FF9383E696E00E944F02FF91EF91BF9143
:1009F000AF919F918F917F916F915F914F913F91B7
:100A00002F910F900FBE0F901F9018951F920F926D
:100A10000FB60F9211242F938F939F93EF93FF9311
:100A2000E0917306F09174068081E0917906F0916F
:100A30007A0682FD1BC0908180917C068F5F8F7348
:100A400020917D06821741F0E0917C06F0E0ED599F
:100A5000F94F958F80937C06FF91EF919F918F9135
:100A60002F910F900FBE0F901F9018958081F4CF9B
:100A70001F920F920FB60F9211242F933F938F93D3
:100A80009F93AF93BF938091B7039091B803A091C8
:100A9000B903B091BA033091E10223E0230F2D375F
:100AA00058F50196A11DB11D2093E1028093B70373
:100AB0009093B803A093B903B093BA038091DD0279
:100AC0009091DE02A091DF02B091E0020196A11D9B
:100AD000B11D8093DD029093DE02A093DF02B093FC
:100AE000E002BF91AF919F918F913F912F910F9015
:100AF0000FBE0F901F90189526E8230F0296A11D98
:100B0000B11DD2CF1F920F920FB60F9211242F93C7
:100B10003F934F935F936F937F938F939F93AF9385
:100B2000BF93EF93FF938091B900887F803609F4DB
:100B30004AC0F0F5883209F4A7C018F5803109F4ED
:100B40009BC0B8F4882309F4F9C0883009F494C034
:100B5000FF91EF91BF91AF919F918F917F916F9195
:100B60005F914F913F912F910F900FBE0F901F906B
:100B70001895883109F488C0803251F780931603A4
:100B800014C0803409F49DC040F48033B9F3883335
:100B9000F9F68093160385ECB0C0803509F485C062
:100BA000883509F496C0883499F60E940F03D0CF97
:100BB000883909F48CC038F5883729F050F4883624
:100BC00011F0803729F683E0809318031092DC023D
:100BD00057C0883809F47BC0803919F0803809F093
:100BE000B7CF8091DC02803208F071C0E091DC0266
:100BF00081E08E0F8093DC028091BB00F0E0E45432
:100C0000FD4F80833DC0803B39F0E0F4803A09F429
:100C100079C0883A09F09CCF84E080931803109241
:100C2000BB021092BA02E091E402F091E50209954C
:100C30008091BA0281110FC081E08093BA021092B4
:100C40009A0209C0803C09F4A6CF883C09F4A3CFDE
:100C5000883B09F07DCFE091BB0281E08E0F80934D
:100C6000BB02F0E0E656FD4F80818093BB0090917F
:100C7000BB028091BA0229C08091F3028093BB002D
:100C800085EC8093BC0064CF909115038091140390
:100C9000981758F5E091150381E08E0F80931503A6
:100CA000F0E0EC50FD4F8081E9CFE091150381E049
:100CB0008E0F809315038091BB00F0E0EC50FD4F48
:100CC000808390911503809114039817C8F285E8EA
:100CD000D8CFE091150381E08E0F809315038091AA
:100CE000BB00F0E0EC50FD4F808380911703811131
:100CF0005CCF81E08093F20284EA8093BC00109282
:100D0000180326CF85EC8093BC00109218038091C5
:100D1000DC02803230F4E091DC02F0E0E454FD4F7C
:100D200010826091DC0270E0E091E202F091E30257
:100D30008CEB92E009951092DC020ACF1092160318
:100D400034CF1F920F920FB60F9211242F938F93CF
:100D50009F93EF93FF9380916F008B7F80936F0041
:100D6000809181008F7B809381008091ED022091A2
:100D70002902205890912802893020F49695922BD0
:100D80008F5FFACF909328028091EC028F5F8035BD
:100D900008F080E02091EB02281739F0E82FF0E00E
:100DA000E65DFD4F90838093EC021092ED028091FE
:100DB00081008F7B8093810010922902FF91EF9137
:100DC0009F918F912F910F900FBE0F901F901895AC
:100DD0001F920F920FB60F9211242F933F934F93B0
:100DE0005F936F937F938F939F93AF93BF93EF9393
:100DF000FF93809186009091870040912902209175
:100E000081004423F1F12F7B20938100109229026D
:100E10003091ED0231113CC0411122C02091EE020F
:100E20003091EF02280F391F30938B0020938A00F6
:100E300024E026BB20916F00246020936F00209156
:100E4000F0023091F102820F931F36952795280FFB
:100E5000391F309327022093260281E08093ED0210
:100E6000FF91EF91BF91AF919F918F917F916F9182
:100E70005F914F913F912F910F900FBE0F901F9058
:100E8000189520642093810020E820932902C0CF88
:100E900040912602509127026091F0027091F10278
:100EA000DB01A095B095E091290220912802841BD6
:100EB000950BA817B90768F126952E2B460F571FDB
:100EC0003F5F861B970B3930A0F320932802809157
:100ED0006F008B7F80936F008091EC028F5F803575
:100EE00008F080E09091EB02981749F0E82FF0E0CD
:100EF00090912802E65DFD4F90838093EC028091F3
:100F000081008F7B80938100109229021092ED0264
:100F1000A7CF2093280250932702409326023093B4
:100F2000ED029ECF1F920F920FB60F9211242F93B6
:100F30003F934F935F936F937F938F939F93EF9321
:100F4000FF932091EA0260912502809188009091A0
:100F500089004091F0025091F102309124022A3030
:100F600070F5840F951F762F7170293009F471E0A8
:100F700066952F5F371799F3309180007723E1F062
:100F8000306C309380009093890080938800709338
:100F90002402609325022093EA02FF91EF919F9132
:100FA0008F917F916F915F914F913F912F910F9012
:100FB0000FBE0F901F9018953F7B3068E2CF3091A5
:100FC000E902E091E8023E1319C02A3051F42BE007
:100FD0002093EA02840F951F9093890080938800E4
:100FE000DCCF1092EA02809180008F7380938000A2
:100FF00080916F008D7F80936F00CFCFEF5FE434DF
:1010000008F0E0E0E093E802F0E0E052FE4F3081CB
:101010003093250210922402309180003F7B30688B
:10102000309380002A3071F42091F0023091F10267
:10103000820F931F909389008093880081E08093B2
:10104000EA02ABCF80918400909185004096F2CF68
:10105000E3E6F6E01382128288EE93E0A0E0B0E0CF
:1010600084839583A683B78322E431E03183208390
:1010700025EC30E03587248724EC30E0378726875D
:1010800020EC30E0318B208B21EC30E0338B228B55
:1010900022EC30E0358B248B26EC30E0378B268B2E
:1010A000118E128E138E148EE0E0F7E013821282FE
:1010B00084839583A683B78324E531E0318320833D
:1010C000ECE0F7E01382128284839583A683B783D2
:1010D00086E691E09183808380911A0190911B01B3
:1010E000909321078093200780911C0790911D0702
:1010F000A0911E07B0911F078093180790931907BE
:10110000A0931A07B0931B070895CF93DF9300D0E5
:1011100000D01F92CDB7DEB7789484B5826084BDCD
:1011200084B5816084BD85B5826085BD85B58160EB
:1011300085BD80916E00816080936E001092810069
:101140008091810082608093810080918100816024
:1011500080938100809180008160809380008091E5
:10116000B10084608093B1008091B0008160809371
:10117000B00080917A00846080937A0080917A0038
:10118000826080937A0080917A00816080937A00F7
:1011900080917A00806880937A001092C10061E0AB
:1011A00080E10E94DE0261E081E10E94DE0280E1D6
:1011B0000E94170181E10E9417011092E70210922C
:1011C000E60210921A0310923C031092180381E079
:1011D000809317031092F20282E10E94170183E1CB
:1011E0000E9417018091B9008E7F8093B900809191
:1011F000B9008D7F8093B90088E48093B80095E4AE
:101200009093BC002FEC31E03093E5022093E40290
:1012100020ED31E03093E3022093E2028093B800A6
:1012200010924A0310924B0310924C0310924D03FC
:1012300010924603109247031092480310924903FC
:1012400010924203109243031092440310924503FC
:1012500010923E0310923F031092400310924103FC
:1012600010926F001092800081E88093810086E1E7
:1012700091E09093F1028093F0028BE09AE09093DA
:10128000EF028093EE0262E088E00E94DE0289E0D5
:101290000E94170161E089E00E94DE021092ED02D7
:1012A0001092EC021092EB021092EA021092E90204
:1012B0001092E80280E286BB80936F001092B60322
:1012C000109252032FB7F8948091B7039091B8030E
:1012D000A091B903B091BA032FBF80934E039093AE
:1012E0004F03A0935003B0935103EBEBF3E081E67F
:1012F000DF011D928A95E9F7E0917306F09174067B
:1013000082E08083E0916F06F09170061082E09198
:101310007106F091720680E1808310927B06E09165
:101320007706F091780686E08083E0917506F0916B
:101330007606808180618083E0917506F091760663
:10134000808188608083E0917506F09176068081C7
:1013500080688083E0917506F091760680818F7DAC
:10136000808383E696E090935E0680935D0684EF2B
:1013700091E0A0E0B0E080935F0690936006A093B8
:101380006106B093620680E890E090931505809323
:101390001405109217051092160583E290E09093C1
:1013A00019058093180510921E0587E090E0909330
:1013B000200580931F051092230584E18093240566
:1013C00010922505109226051092270510922805E7
:1013D00082E090E0A0E0B0E08093020190930301EE
:1013E000A0930401B09305013324339400915C066B
:1013F000002309F47AC01091DA051C83111175C01D
:1014000010915A051B833092190310933B031092DD
:101410001A0310923C033092DA05EE24E394F12C87
:1014200010E0E016F10694F4D090DA05ED2DF0E02E
:10143000E65AFA4F608180E097E00E949703D394C8
:10144000D092DA052FEFE21AF20AEBCF80913C033B
:10145000813208F040C0909118039111FCCF92E0C6
:1014600090931803309217039FEF909316031092F6
:10147000150380931403EBE1F3E0A4EFB2E01C81C9
:10148000811344C21092F3028091F3020B81000F8A
:10149000082B0093F3028091F202813009F03CC2E4
:1014A0001092F2028091F3028093BB008091BC0005
:1014B00083FDF8CF85EC8093BC00809118038230C7
:1014C000E1F3809116038F3F31F080911603803253
:1014D00011F08091160310921A0310923C0310929F
:1014E00019031092DA0510925C0680915C06811156
:1014F00063C080915203882309F45EC08091BF03CA
:101500009091C003A091C103B091C20340914A03DE
:1015100050914B0360914C0370914D0384179507D4
:10152000A607B70709F4FAC180934A0390934B03C7
:10153000A0934C03B0934D03A091CD03B091CE0383
:1015400028EB3AE70E94F11624EB30E040E050E04F
:101550000E94B3142901A091CF03B091D00328EBCE
:101560003AE70E94F11624EB30E040E050E00E94A0
:10157000B3144901A091D103B091D20328EB3AE70B
:101580000E94F11624EB30E040E050E00E94B314DA
:1015900069011092DC0582E080933D038EE10E9498
:1015A0005004C2010E945D04C4010E945D04C60192
:1015B0000E945D040E9476048CE097E00E94D903AB
:1015C000892B09F4BFC28CE097E00E94FC03909144
:1015D000B603913009F4AAC208F49CC2923009F40F
:1015E000A9C2933009F4AAC2E92FF0E0ED5AFC4FEA
:1015F00080839F35E8F46091B4032091B50382277E
:10160000282F22952A832827298329813A81207F20
:101610003F70A901440F551F3427382739832627E7
:1016200025272A8309811A811093B5030093B403F7
:101630009F5F9093B603913608F4BECF2091B2031A
:101640003091B3038091B4039091B5032817390703
:1016500009F062C281E6E3E5F3E0ABEBB3E00190B1
:101660000D928A95E1F76091BB037091BC03809164
:10167000BD039091BE030E94EA166093BB03709372
:10168000BC038093BD039093BE036091C30370912C
:10169000C4038091C5039091C6030E94EA1660932B
:1016A000C3037093C4038093C5039093C6038091D2
:1016B000C7039091C8039827892798279093C80358
:1016C0008093C7038091C9039091CA039827892703
:1016D00098279093CA038093C9038091CB0390917C
:1016E000CC039827892798279093CC038093CB032A
:1016F0008091CD039091CE039827892798279093C6
:10170000CE038093CD038091CF039091D00398278F
:10171000892798279093D0038093CF038091D1039A
:101720009091D2039827892798279093D20380938A
:10173000D1038091D3039091D403982789279827C8
:101740009093D4038093D3038091D5039091D603D3
:101750009827892798279093D6038093D503809163
:10176000D7039091D8039827892798279093D80377
:101770008093D7038091D9039091DA039827892722
:1017800098279093DA038093D9038091DB0390919B
:10179000DC039827892798279093DC038093DB0349
:1017A0008091DD039091DE039827892798279093F5
:1017B000DE038093DD038091DF039091E00398279F
:1017C000892798279093E0038093DF038091E103BA
:1017D0009091E2039827892798279093E2038093BA
:1017E000E1038091E3039091E403982789279827E8
:1017F0009093E4038093E3038091E5039091E603E3
:101800009827892798279093E6038093E503809192
:10181000E7039091E8039827892798279093E80396
:101820008093E7036091EB037091EC038091ED03EB
:101830009091EE030E94EA166093EB037093EC0321
:101840008093ED039093EE036091EF037091F003AA
:101850008091F1039091F2030E94EA166093EF03E6
:101860007093F0038093F1039093F2036091F3037C
:101870007091F4038091F5039091F6030E94EA16AB
:101880006093F3037093F4038093F5039093F6034E
:101890008091F7039091F8039827892798279093D0
:1018A000F8038093F7038091F9039091FA03982746
:1018B000892798279093FA038093F9036091FB039B
:1018C0007091FC038091FD039091FE030E94EA1643
:1018D0006093FB037093FC038093FD039093FE03DE
:1018E000309252032FB7F8948091B7039091B803C8
:1018F000A091B903B091BA032FBF80934E03909388
:101900004F03A0935003B093510306C191919D934F
:101910000C810F5F0C83B3CD85EECDCD4091460396
:1019200050914703609148037091490384179507CC
:10193000A607B70709F462C0809346039093470354
:10194000A0934803B09349034090EB035090EC03FD
:101950006090ED037090EE03C090EF03D090F00321
:10196000E090F103F090F2030091F7031091F80377
:101970006091FB037091FC038091FD039091FE0345
:1019800024E630E040E050E00E94B314C9018851E1
:101990009C4F9D838C83209000042091F90330910B
:1019A000FA03A0E7B5EF0E94F41428E631E040E026
:1019B00050E00E94D21449011092DC0582E080932D
:1019C0003D030E945004C3010E945D04C2010E94B5
:1019D0005D04C7010E945D04C6010E945D04C80148
:1019E0000E945D04C4010E945D048C819D810E945F
:1019F0005D04822D0E94500480E040C0409142036B
:101A000050914303609144037091450384179507F7
:101A1000A607B707B1F18093420390934303A093C5
:101A20004403B09345038091D9039091DA036AE0AF
:101A300070E00E94C2167B010091E1031091E20365
:101A4000A091E503B091E603BD83AC831092DC0561
:101A500082E080933D0388E00E945004C7010E9409
:101A60005D04C8010E945D0480E00E9450040C8166
:101A70001D81C801892F0E9450048C810E9450044E
:101A800099CD40913E0350913F0360914003709186
:101A9000410384179507A607B70709F48DCD8093F6
:101AA0003E0390933F03A0934003B0934103E09122
:101AB0000104E13108F0E0E1F0E0EE0FFF1FE45E29
:101AC000FE4F00811181D8010D900020E9F7119798
:101AD000A01BB10BBD83AC83509720F0EFE0F0E08A
:101AE000FD83EC831092DC0582E080933D0381E26C
:101AF0000E9450047801C701801B910B2C813D810D
:101B0000821793070CF078CFD7018D917D010E9449
:101B10005004F1CF803B19F01092B6034DCDEFEF9A
:101B2000FFEFF093B503E093B4035ECD8E3109F47B
:101B30005BCDF2CF8E3D09F457CDEECF8D3A09F44F
:101B400053CDEACF809152038823F1F02FB7F89458
:101B50008091B7039091B803A091B903B091BA03F3
:101B60002FBF40914E0350914F03609150037091ED
:101B70005103841B950BA60BB70B893B9B40A1051A
:101B8000B10510F0109252032FB7F8948091B7036B
:101B90009091B803A091B903B091BA032FBF4091BF
:101BA00056055091570560915805709159058C0163
:101BB0009D01041B150B260B370BB901A8014436F8
:101BC00051056105710508F403C48093560590938F
:101BD0005705A0935805B0935905C0904205D09081
:101BE0004305E0904405F0904505C114D104E1049B
:101BF000F10409F4A0C480913E0590913F05A091A5
:101C00004005B09141050097A105B10509F493C4C1
:101C100000914705109148052091490530914A05EA
:101C2000BC01CD01601B710B820B930B0E949613BC
:101C30002091150130911601409117015091180122
:101C40000E94F5134B015C0180914B0590914C056E
:101C5000A0914D05B0914E05A7019601281B390BA7
:101C60004A0B5B0BCA01B9010E9496139058A5015B
:101C700094010E94831520EA3CE043EB55E40E9466
:101C8000F51320E030EA4CE056E40E9404150E946F
:101C9000541697FF04C0605673478F4F9F4F24E63A
:101CA00030E040E050E00E94B3143093DC04209315
:101CB000DB048091D9039091DA036AE070E00E941E
:101CC000C216609350052091E1033091E2034AE08F
:101CD000429FC001439F900D112490932A05809349
:101CE00029058091E5039091E60390930A0580937E
:101CF00009056091C7037091C80390E080E00E94DD
:101D0000941321EC3AEC41E350E40E94F5130E9455
:101D10005B167093E7046093E6048091E70390916B
:101D2000E8039093DA048093D9048091CD039091D5
:101D3000CE039093D8048093D7048091CF039091E1
:101D4000D0039093D0048093CF048091C9039091E5
:101D5000CA0364E670E00E94D616072E000C880BBA
:101D6000990B0E9496136093C1047093C2048093F0
:101D7000C3049093C4048091C3039091C403A091C1
:101D8000C503B091C6038093E8049093E904A0933F
:101D9000EA04B093EB048091EB039091EC03A091E3
:101DA000ED03B091EE0380934B0590934C05A09307
:101DB0004D05B0934E05C090EF03D090F003E09036
:101DC000F103F090F203C0924705D0924805E092EB
:101DD0004905F0924A058091FB039091FC03A09184
:101DE000FD03B091FE0380933A0590933B05A093C9
:101DF0003C05B0933D056091F3037091F40380912D
:101E0000F5039091F6032AE030E040E050E00E94B4
:101E1000D2142093E2043093E3044093E4045093FB
:101E2000E504CD28CE28CF2809F48AC38091000488
:101E30008093460580914605843030F0863008F066
:101E400082C382E080934F058091010490E0B0E06E
:101E5000A0E080931C0790931D07A0931E07B093EA
:101E60001F072091E90330E0AFEFB3E00E94F414C4
:101E700024E630E040E050E00E94B31430930C05BB
:101E800020930B05009119010B836091520570910D
:101E90005305809154059091550524E833E040E0C6
:101EA00050E00E94D214672B682B692B09F04DC3B8
:101EB000013009F04AC38091200790912107813DAC
:101EC000974080F080911A0190911B0120910001B0
:101ED0003091010130931B0120931A01909301016D
:101EE000809300018FE0E6E0F1E0ABE2B5E0019025
:101EF0000D928A95E1F74FE06BE275E08AE00E946F
:101F00005E018091020190910301A0910401B091C2
:101F100005010297A105B10599F4809129059091D9
:101F20002A058D32914064F023E030E040E050E03B
:101F30002093020130930301409304015093050163
:101F40008091020190910301A0910401B0910501DB
:101F500080931A0590931B05A0931C05B0931D0553
:101F600083E093E0909322058093210545E164E1AD
:101F700075E086E90E945E0110922205109221050B
:101F800045E164E175E085E60E945E0180915005BF
:101F900080930D0580910B0590910C059093110590
:101FA000809310058091290590912A05909313053F
:101FB000809312058091090590910A0590930F0571
:101FC00080930E0547E06DE075E08EE60E945E01AD
:101FD0008091290590912A05909305058093040529
:101FE000209150053AE0239FC001112490930805E9
:101FF000809307058091090590910A059093030548
:1020000080930205809151058093FE0480E594E160
:10201000909300058093FF0410920605209301051C
:102020004BE06EEF74E082E80E945E0180914B0508
:1020300090914C05A0914D05B0914E058093EE0412
:102040009093EF04A093F004B093F10480914705BE
:1020500090914805A0914905B0914A058093F204FA
:102060009093F304A093F404B093F5048091460593
:102070008093ED048091E8049091E9049093F70433
:102080008093F6048091E6049091E7049093F9041C
:102090008093F80442E16CEE74E08AE60E945E01EF
:1020A0008091E2049091E3049093DE048093DD0438
:1020B0008091DB049091DC042091D9043091DA0402
:1020C000821B930B9093E0048093DF0445E06DED59
:1020D00074E08BE60E945E012091D7043091D80411
:1020E0004AE0429FC001439F900D11249093D40475
:1020F0008093D3042091CF043091D004429FC0013B
:10210000439F900D11249093D2048093D10446E014
:1021100061ED74E08CE60E945E018091E80490918C
:10212000E904A091EA04B091EB048093C504909374
:10213000C604A093C704B093C8046091C104709111
:10214000C2048091C3049091C4040E9454167093F9
:10215000CA046093C9044AE065EC74E08DE60E940D
:102160005E0110921E0488E38093230488E180932B
:10217000980482E090E09093B2048093B10480E1EF
:102180008093B9043092BE043092BF041092C00410
:1021900080E098E0909327048093260489E198E0FA
:1021A00090932904809328048AEE90E090932B0466
:1021B00080932A0490932D0480932C0490932F04F1
:1021C00080932E04909331048093300490933304D1
:1021D00080933204909335048093340420E638E0F1
:1021E0003093370420933604909339048093380455
:1021F00090933B0480933A0427E338E030933D0406
:1022000020933C042AE538E030933F0420933E04B9
:1022100021EE38E0309341042093400420911A01CC
:1022200030911B01309343042093420428EF38E09F
:1022300030934504209344049093470480934604CC
:10224000909349048093480490934B0480934A04EC
:1022500090934D0480934C0490934F0480934E04CC
:1022600090935104809350049093530480935204AC
:1022700023E939E0309355042093540423E739E0EF
:102280003093570420935604909359048093580434
:102290002AEE39E030935B0420935A042EEE39E0A5
:1022A00030935D0420935C0490935F0480935E04FC
:1022B00090936104809360042EE038E030936304CF
:1022C000209362042FE038E0309365042093640487
:1022D00090936704809366042AE139E0309369049F
:1022E0002093680490936B0480936A0490936D0428
:1022F00080936C0490936F0480936E0490937104A8
:102300008093700490937304809372049093750487
:102310008093740490937704809376049093790467
:102320008093780490937B0480937A0490937D0447
:1023300080937C0490937F0480937E049093810427
:102340008093800490938304809382049093850407
:1023500080938404909387048093860490938904E7
:102360008093880490938B0480938A0490938D04C7
:1023700080938C0490938F0480938E0490939104A7
:102380008093900490939304809392049093950487
:1023900080939404909397048093960445EA6CE1AB
:1023A00074E084E50E945E0180915205909153058E
:1023B000A0915405B09155058C599F4FAF4FBF4F19
:1023C0008093520590935305A0935405B0935505FF
:1023D00080911C0790911D07A0911E07B0911F07C7
:1023E000409118075091190760911A0770911B07C7
:1023F00084179507A607B70751F0809318079093A5
:102400001907A0931A07B0931B070E94B404809188
:102410005105811109C080915005882329F08B3224
:1024200008F09FC03092510560915205709153059C
:10243000809154059091550520E137E240E050E04D
:102440000E94D214672B682B692B11F40E94B404EC
:1024500080914F05833008F410C1809119018130BB
:1024600009F00BC160914B0570914C0580914D05B1
:1024700090914E05611571058105910509F4FDC026
:1024800000914705109148052091490530914A0572
:10249000011511052105310509F4EFC040914605EC
:1024A000463008F4EAC06093420570934305809378
:1024B00044059093450500933E0510933F052093F6
:1024C0004005309341050E9496139F7720E836E936
:1024D00048E15BE40E94E21525E33AEF4EE85CE355
:1024E0000E94F5132BED3FE049EC5FE30E940415D9
:1024F0006B017C010E945416605E7F4F8F4F9F4F8F
:10250000613471058105910508F0E0C02BED3FE0D5
:1025100049E450E4C701B6010E94B1161816C4F58B
:102520002BED3FE049EC50E4C701B6010E940315D2
:102530006B017C01EBCF1092DC041092DB04B9CB71
:102540003092460577CC83E07DCC0B810111CACC5B
:10255000809120079091210790931B0180931A018D
:10256000C1CC853520F482E0809351055DCF8F3753
:1025700010F483E0F9CF893A10F484E0F5CF833D7D
:1025800010F485E0F1CF8F3F09F44ECF86E0ECCF19
:102590002BED3FE049E450ECC701B6010E948F13D8
:1025A00087FF0BC02BED3FE049EC50E4C701B601BB
:1025B0000E9404156B017C01EBCF2BED3FE049EC51
:1025C0005FE3C701B6010E94B11618160CF065C092
:1025D0002BED3FE049EC5FE3C701B6010E94031514
:1025E0009B01AC016BED7FE089EC9FE30E9403153A
:1025F0006B017C01A7019601C701B6010E94F5138A
:102600004B015C0120E030E0A9010E94F51322E9B2
:1026100037EE41E459E30E940315A50194010E949D
:10262000F51327E930E348E05CE30E940415A501B7
:1026300094010E94F51325E138EA4AE25EE30E9424
:1026400003152B013C01A5019401C701B6010E94AD
:10265000F5139B01AC01C301B2010E94F513A70160
:1026600096010E94041560931501709316018093E2
:102670001701909318011092190180E090E0892BC6
:1026800011F40C94F6090E943B02882311F40C9477
:10269000F4090E9400000C94F4092BED3FE049EC92
:1026A0005FEBC701B6010E948F1387FFA3CF2BED0D
:1026B0003FE049EC5FE3C701B6010E9404159B01AE
:1026C000AC016BED7FE089EC9FEB90CF60E070E0B8
:1026D000CB01C9CF86E691E090930D0780930C075C
:1026E00080916F008B7F80936F0080916F008F7D52
:1026F00080936F008091EB028093EC028091EA025C
:102700008111FCCF80916F008D7F80936F000895C1
:10271000FB01DC0105900D920020E1F708950E9475
:10272000D11308F481E00895E89409C097FB3EF4C2
:1027300090958095709561957F4F8F4F9F4F99230E
:10274000A9F0F92F96E9BB279395F695879577958C
:102750006795B795F111F8CFFAF4BB0F11F460FF4C
:102760001BC06F5F7F4F8F4F9F4F16C0882311F0A4
:1027700096E911C0772321F09EE8872F762F05C0B8
:10278000662371F096E8862F70E060E02AF09A9553
:10279000660F771F881FDAF7880F9695879597F948
:1027A0000895990F0008550FAA0BE0E8FEEF1616E2
:1027B0001706E807F907C0F012161306E407F50735
:1027C00098F0621B730B840B950B39F40A2661F0A9
:1027D000232B242B252B21F408950A2609F4A1404C
:1027E000A6958FEF811D811D08950E9408140C94F9
:1027F00079140E946B1438F00E94721420F0952313
:1028000011F00C9462140C94681411240C94AD14FF
:102810000E948A1470F3959FC1F3950F50E0551FE5
:10282000629FF001729FBB27F00DB11D639FAA2725
:10283000F00DB11DAA1F649F6627B00DA11D661F74
:10284000829F2227B00DA11D621F739FB00DA11D95
:10285000621F839FA00D611D221F749F3327A00D4F
:10286000611D231F849F600D211D822F762F6A2FEB
:1028700011249F5750409AF0F1F088234AF0EE0F50
:10288000FF1FBB1F661F771F881F91505040A9F77D
:102890009E3F510580F00C9462140C94AD145F3F80
:1028A000E4F3983ED4F3869577956795B795F795B9
:1028B000E7959F5FC1F7FE2B880F911D9695879531
:1028C00097F9089597F99F6780E870E060E00895B0
:1028D0009FEF80EC089500240A9416161706180638
:1028E0000906089500240A94121613061406050614
:1028F0000895092E0394000C11F4882352F0BB0FA5
:1029000040F4BF2B11F460FF04C06F5F7F4F8F4F07
:102910009F4F089557FD9058440F551F59F05F3F42
:1029200071F04795880F97FB991F61F09F3F79F0F1
:1029300087950895121613061406551FF2CF469573
:10294000F1DF08C0161617061806991FF1CF8695F5
:102950007105610508940895E894BB2766277727D9
:10296000CB0197F90895052E97FB1EF400940E9461
:10297000CA1457FD07D00E94D21407FC03D04EF4AE
:102980000C94CA1450954095309521953F4F4F4F68
:102990005F4F089590958095709561957F4F8F4F0B
:1029A0009F4F0895A1E21A2EAA1BBB1BFD010DC06B
:1029B000AA1FBB1FEE1FFF1FA217B307E407F507EF
:1029C00020F0A21BB30BE40BF50B661F771F881FCB
:1029D000991F1A9469F760957095809590959B0161
:1029E000AC01BD01CF010895A29FB001B39FC0010A
:1029F000A39F700D811D1124911DB29F700D811D2B
:102A00001124911D08955058BB27AA270E941B1519
:102A10000C9479140E946B1438F00E94721420F008
:102A200039F49F3F19F426F40C9468140EF4E095E1
:102A3000E7FB0C946214E92F0E948A1458F3BA172A
:102A4000620773078407950720F079F4A6F50C94C4
:102A5000AC140EF4E0950B2EBA2FA02D0B01B9018A
:102A600090010C01CA01A0011124FF27591B99F004
:102A7000593F50F4503E68F11A16F040A22F232F10
:102A8000342F4427585FF3CF469537952795A79560
:102A9000F0405395C9F77EF41F16BA0B620B730B07
:102AA000840BBAF09150A1F0FF0FBB1F661F771F78
:102AB000881FC2F70EC0BA0F621F731F841F48F42D
:102AC000879577956795B795F7959E3F08F0B0CFB6
:102AD0009395880F08F09927EE0F9795879508959D
:102AE0000E946B1460F080E891E009F49EEF0E9470
:102AF000721428F040E851E071F45EEF0CC00C94C1
:102B000068140C94AC14E92FE0780E948A1440F306
:102B1000092E052AB1F3261737074807590738F059
:102B20000E2E07F8E02569F0E025E0640AC0EF63A7
:102B300007F8009407FADB01B9019D01DC01CA0125
:102B4000AD01EF930E94F9150E9479140E94B3150C
:102B50005F91552339F02BED3FE049E450FD49ECFE
:102B60000C9404150895DF93DD27B92FBF7740E853
:102B70005FE31616170648075B0718F4D92F0E9463
:102B8000B6169F938F937F936F930E94BE16E8E6CD
:102B9000F0E00E948A160E9479142F913F914F9184
:102BA0005F910E940814DD2351F09058A2EA2AEDAB
:102BB0003FE049EC5FE3D0785D270E941B15DF9171
:102BC0000C9479140E94F6150C9479140E947214D6
:102BD00058F00E946B1440F029F45F3F29F00C94E8
:102BE000621451110C94AD140C9468140E948A1450
:102BF00068F39923B1F3552391F3951B550BBB272C
:102C0000AA2762177307840738F09F5F5F4F220F70
:102C1000331F441FAA1FA9F335D00E2E3AF0E0E867
:102C200032D091505040E695001CCAF72BD0FE2FB1
:102C300029D0660F771F881FBB1F26173707480745
:102C4000AB07B0E809F0BB0B802DBF01FF279358FD
:102C50005F4F3AF09E3F510578F00C9462140C944B
:102C6000AD145F3FE4F3983ED4F38695779567956E
:102C7000B795F7959F5FC9F7880F911D9695879532
:102C800097F90895E1E0660F771F881FBB1F621751
:102C900073078407BA0720F0621B730B840BBA0B0F
:102CA000EE1F88F7E09508950E945B166894B111B5
:102CB0000C94AD1408950E94921488F09F5798F0D8
:102CC000B92F9927B751B0F0E1F0660F771F881F31
:102CD000991F1AF0BA95C9F714C0B13091F00E944B
:102CE000AC14B1E008950C94AC14672F782F8827AA
:102CF000B85F39F0B93FCCF3869577956795B39572
:102D0000D9F73EF490958095709561957F4F8F4FE0
:102D10009F4F0895DF93CF931F930F93FF92EF92EE
:102D2000DF927B018C01689406C0DA2EEF010E94CD
:102D30000814FE01E894A59125913591459155918E
:102D4000A6F3EF010E941B15FE019701A801DA947A
:102D500069F7DF90EF90FF900F911F91CF91DF9176
:102D600008950E94D11308F48FEF08959B01AC01E0
:102D700060E070E080E89FE30C94E2159B01AC01F9
:102D80000C94F513AA1BBB1B51E107C0AA1FBB1F64
:102D9000A617B70710F0A61BB70B881F991F5A95E7
:102DA000A9F780959095BC01CD01089597FB072E5A
:102DB00016F4009407D077FD09D00E94C21607FCD4
:102DC00005D03EF4909581959F4F0895709561953B
:102DD0007F4F0895692796276927782787277827BF
:102DE00008950E94F414B7FF0895821B930B089571
:102DF000EE0FFF1F0590F491E02D099410E0CCEE4A
:102E0000D0E004C0FE010E94F8162196CD3ED10705
:062E1000C9F7F894FFCFA2
:102E1600EA0002000000444A49414952554E4954CD
:102E260000000000000000803F01200874017701C7
:102E36007D018301BB018C018F01950199019E01E2
:102E4600A301AF01B501C201CF01D301DC0100002E
:102E560000007102D101FE01BE022F020D02210205
:102E66000000000097036A03C60340036303500390
:102E76004103000000001704D101C9031204D9035D
:102E8600FC03E90332440032445F41480032445FA8
:102E960048480032445F41485F48480033440033A5
:102EA600445F484800525448004C414E4400434158
:102EB600525400434152545F4C4F495445520050BE
:102EC6004F4C415200504F4C41525F4C4F49544574
:102ED600520043454E5445525F535449434B004FAD
:102EE600464600574159504F494E54004D415800EF
:00000001FF
